{
  "_format": "hh-sol-artifact-1",
  "contractName": "Agent",
  "sourceName": "contracts/Agent.sol",
  "abi": [
    {
      "inputs": [
        {
          "internalType": "address",
          "name": "initialOracleAddress",
          "type": "address"
        },
        {
          "internalType": "string",
          "name": "systemPrompt",
          "type": "string"
        }
      ],
      "stateMutability": "nonpayable",
      "type": "constructor"
    },
    {
      "anonymous": false,
      "inputs": [
        {
          "indexed": true,
          "internalType": "address",
          "name": "owner",
          "type": "address"
        },
        {
          "indexed": true,
          "internalType": "uint256",
          "name": "runId",
          "type": "uint256"
        }
      ],
      "name": "AgentRunCreated",
      "type": "event"
    },
    {
      "anonymous": false,
      "inputs": [
        {
          "indexed": true,
          "internalType": "address",
          "name": "newOracleAddress",
          "type": "address"
        }
      ],
      "name": "OracleAddressUpdated",
      "type": "event"
    },
    {
      "inputs": [
        {
          "internalType": "uint256",
          "name": "",
          "type": "uint256"
        }
      ],
      "name": "agentRuns",
      "outputs": [
        {
          "internalType": "address",
          "name": "owner",
          "type": "address"
        },
        {
          "internalType": "uint256",
          "name": "responsesCount",
          "type": "uint256"
        },
        {
          "internalType": "uint8",
          "name": "max_iterations",
          "type": "uint8"
        },
        {
          "internalType": "bool",
          "name": "is_finished",
          "type": "bool"
        }
      ],
      "stateMutability": "view",
      "type": "function"
    },
    {
      "inputs": [
        {
          "internalType": "uint256",
          "name": "agentId",
          "type": "uint256"
        }
      ],
      "name": "getMessageHistoryContents",
      "outputs": [
        {
          "internalType": "string[]",
          "name": "",
          "type": "string[]"
        }
      ],
      "stateMutability": "view",
      "type": "function"
    },
    {
      "inputs": [
        {
          "internalType": "uint256",
          "name": "agentId",
          "type": "uint256"
        }
      ],
      "name": "getMessageHistoryRoles",
      "outputs": [
        {
          "internalType": "string[]",
          "name": "",
          "type": "string[]"
        }
      ],
      "stateMutability": "view",
      "type": "function"
    },
    {
      "inputs": [
        {
          "internalType": "uint256",
          "name": "runId",
          "type": "uint256"
        }
      ],
      "name": "isRunFinished",
      "outputs": [
        {
          "internalType": "bool",
          "name": "",
          "type": "bool"
        }
      ],
      "stateMutability": "view",
      "type": "function"
    },
    {
      "inputs": [
        {
          "internalType": "uint256",
          "name": "runId",
          "type": "uint256"
        },
        {
          "internalType": "string",
          "name": "response",
          "type": "string"
        },
        {
          "internalType": "string",
          "name": "errorMessage",
          "type": "string"
        }
      ],
      "name": "onOracleFunctionResponse",
      "outputs": [],
      "stateMutability": "nonpayable",
      "type": "function"
    },
    {
      "inputs": [
        {
          "internalType": "uint256",
          "name": "runId",
          "type": "uint256"
        },
        {
          "components": [
            {
              "internalType": "string",
              "name": "id",
              "type": "string"
            },
            {
              "internalType": "string",
              "name": "content",
              "type": "string"
            },
            {
              "internalType": "string",
              "name": "functionName",
              "type": "string"
            },
            {
              "internalType": "string",
              "name": "functionArguments",
              "type": "string"
            },
            {
              "internalType": "uint64",
              "name": "created",
              "type": "uint64"
            },
            {
              "internalType": "string",
              "name": "model",
              "type": "string"
            },
            {
              "internalType": "string",
              "name": "systemFingerprint",
              "type": "string"
            },
            {
              "internalType": "string",
              "name": "object",
              "type": "string"
            },
            {
              "internalType": "uint32",
              "name": "completionTokens",
              "type": "uint32"
            },
            {
              "internalType": "uint32",
              "name": "promptTokens",
              "type": "uint32"
            },
            {
              "internalType": "uint32",
              "name": "totalTokens",
              "type": "uint32"
            }
          ],
          "internalType": "struct IOracle.OpenAiResponse",
          "name": "response",
          "type": "tuple"
        },
        {
          "internalType": "string",
          "name": "errorMessage",
          "type": "string"
        }
      ],
      "name": "onOracleOpenAiLlmResponse",
      "outputs": [],
      "stateMutability": "nonpayable",
      "type": "function"
    },
    {
      "inputs": [],
      "name": "oracleAddress",
      "outputs": [
        {
          "internalType": "address",
          "name": "",
          "type": "address"
        }
      ],
      "stateMutability": "view",
      "type": "function"
    },
    {
      "inputs": [],
      "name": "prompt",
      "outputs": [
        {
          "internalType": "string",
          "name": "",
          "type": "string"
        }
      ],
      "stateMutability": "view",
      "type": "function"
    },
    {
      "inputs": [
        {
          "internalType": "string",
          "name": "_prompt",
          "type": "string"
        }
      ],
      "name": "resetPrompt",
      "outputs": [],
      "stateMutability": "nonpayable",
      "type": "function"
    },
    {
      "inputs": [
        {
          "internalType": "string",
          "name": "query",
          "type": "string"
        },
        {
          "internalType": "uint8",
          "name": "max_iterations",
          "type": "uint8"
        }
      ],
      "name": "runAgent",
      "outputs": [
        {
          "internalType": "uint256",
          "name": "i",
          "type": "uint256"
        }
      ],
      "stateMutability": "nonpayable",
      "type": "function"
    },
    {
      "inputs": [
        {
          "internalType": "address",
          "name": "newOracleAddress",
          "type": "address"
        }
      ],
      "name": "setOracleAddress",
      "outputs": [],
      "stateMutability": "nonpayable",
      "type": "function"
    }
  ],
  "bytecode": "0x60806040523480156200001157600080fd5b506040516200321b3803806200321b83398181016040528101906200003791906200055d565b33600360006101000a81548173ffffffffffffffffffffffffffffffffffffffff021916908373ffffffffffffffffffffffffffffffffffffffff16021790555081600460006101000a81548173ffffffffffffffffffffffffffffffffffffffff021916908373ffffffffffffffffffffffffffffffffffffffff1602179055508060009081620000ca91906200080e565b50604051806101a001604052806040518060400160405280601381526020017f6770742d342d747572626f2d70726576696577000000000000000000000000008152508152602001601560000b81526020016040518060200160405280600081525081526020016103e863ffffffff168152602001601560000b81526020016040518060400160405280600f81526020017f7b2274797065223a2274657874227d0000000000000000000000000000000000815250815260200160008152602001604051806020016040528060008152508152602001600a8152602001606581526020016040518061020001604052806101d38152602001620030486101d3913981526020016040518060400160405280600481526020017f6175746f00000000000000000000000000000000000000000000000000000000815250815260200160405180602001604052806000815250815250600560008201518160000190816200023791906200080e565b5060208201518160010160006101000a81548160ff021916908360000b60ff16021790555060408201518160020190816200027391906200080e565b5060608201518160030160006101000a81548163ffffffff021916908363ffffffff16021790555060808201518160030160046101000a81548160ff021916908360000b60ff16021790555060a0820151816004019081620002d691906200080e565b5060c0820151816005015560e0820151816006019081620002f891906200080e565b50610100820151816007015561012082015181600801556101408201518160090190816200032791906200080e565b5061016082015181600a0190816200034091906200080e565b5061018082015181600b0190816200035991906200080e565b509050505050620008f5565b6000604051905090565b600080fd5b600080fd5b600073ffffffffffffffffffffffffffffffffffffffff82169050919050565b6000620003a68262000379565b9050919050565b620003b88162000399565b8114620003c457600080fd5b50565b600081519050620003d881620003ad565b92915050565b600080fd5b600080fd5b6000601f19601f8301169050919050565b7f4e487b7100000000000000000000000000000000000000000000000000000000600052604160045260246000fd5b6200043382620003e8565b810181811067ffffffffffffffff82111715620004555762000454620003f9565b5b80604052505050565b60006200046a62000365565b905062000478828262000428565b919050565b600067ffffffffffffffff8211156200049b576200049a620003f9565b5b620004a682620003e8565b9050602081019050919050565b60005b83811015620004d3578082015181840152602081019050620004b6565b60008484015250505050565b6000620004f6620004f0846200047d565b6200045e565b905082815260208101848484011115620005155762000514620003e3565b5b62000522848285620004b3565b509392505050565b600082601f830112620005425762000541620003de565b5b815162000554848260208601620004df565b91505092915050565b600080604083850312156200057757620005766200036f565b5b60006200058785828601620003c7565b925050602083015167ffffffffffffffff811115620005ab57620005aa62000374565b5b620005b9858286016200052a565b9150509250929050565b600081519050919050565b7f4e487b7100000000000000000000000000000000000000000000000000000000600052602260045260246000fd5b600060028204905060018216806200061657607f821691505b6020821081036200062c576200062b620005ce565b5b50919050565b60008190508160005260206000209050919050565b60006020601f8301049050919050565b600082821b905092915050565b600060088302620006967fffffffffffffffffffffffffffffffffffffffffffffffffffffffffffffffff8262000657565b620006a2868362000657565b95508019841693508086168417925050509392505050565b6000819050919050565b6000819050919050565b6000620006ef620006e9620006e384620006ba565b620006c4565b620006ba565b9050919050565b6000819050919050565b6200070b83620006ce565b620007236200071a82620006f6565b84845462000664565b825550505050565b600090565b6200073a6200072b565b6200074781848462000700565b505050565b5b818110156200076f576200076360008262000730565b6001810190506200074d565b5050565b601f821115620007be57620007888162000632565b620007938462000647565b81016020851015620007a3578190505b620007bb620007b28562000647565b8301826200074c565b50505b505050565b600082821c905092915050565b6000620007e360001984600802620007c3565b1980831691505092915050565b6000620007fe8383620007d0565b9150826002028217905092915050565b6200081982620005c3565b67ffffffffffffffff811115620008355762000834620003f9565b5b620008418254620005fd565b6200084e82828562000773565b600060209050601f83116001811462000886576000841562000871578287015190505b6200087d8582620007f0565b865550620008ed565b601f198416620008968662000632565b60005b82811015620008c05784890151825560018201915060208501945060208101905062000899565b86831015620008e05784890151620008dc601f891682620007d0565b8355505b6001600288020188555050505b505050505050565b61274380620009056000396000f3fe608060405234801561001057600080fd5b50600436106100a95760003560e01c80637d783cb0116100715780637d783cb014610150578063a89ae4ba1461016c578063c63b02951461018a578063daec051f146101bd578063eb17429a146101ed578063ed6e39e51461021d576100a9565b80632eab9c81146100ae5780634c69c00f146100de5780634cecd88e146100fa5780637397454d146101165780637c65d71114610132575b600080fd5b6100c860048036038101906100c391906113ed565b61024d565b6040516100d59190611435565b60405180910390f35b6100f860048036038101906100f391906114ae565b61027a565b005b610114600480360381019061010f9190611877565b610421565b005b610130600480360381019061012b9190611902565b6107ec565b005b61013a610a9f565b6040516101479190611a0c565b60405180910390f35b61016a60048036038101906101659190611a2e565b610b2d565b005b610174610bd0565b6040516101819190611a86565b60405180910390f35b6101a4600480360381019061019f91906113ed565b610bf6565b6040516101b49493929190611acc565b60405180910390f35b6101d760048036038101906101d29190611b3d565b610c60565b6040516101e49190611b99565b60405180910390f35b610207600480360381019061020291906113ed565b611014565b6040516102149190611cc0565b60405180910390f35b610237600480360381019061023291906113ed565b6111a2565b6040516102449190611cc0565b60405180910390f35b60006001600083815260200190815260200160002060030160019054906101000a900460ff169050919050565b600360009054906101000a900473ffffffffffffffffffffffffffffffffffffffff1673ffffffffffffffffffffffffffffffffffffffff163373ffffffffffffffffffffffffffffffffffffffff161461030a576040517f08c379a000000000000000000000000000000000000000000000000000000000815260040161030190611d2e565b60405180910390fd5b600360009054906101000a900473ffffffffffffffffffffffffffffffffffffffff1673ffffffffffffffffffffffffffffffffffffffff163373ffffffffffffffffffffffffffffffffffffffff161461039a576040517f08c379a000000000000000000000000000000000000000000000000000000000815260040161039190611d9a565b60405180910390fd5b80600460006101000a81548173ffffffffffffffffffffffffffffffffffffffff021916908373ffffffffffffffffffffffffffffffffffffffff1602179055508073ffffffffffffffffffffffffffffffffffffffff167f107a9fafffb7ac890f780879e423760c9ffea8dcee8045681f40f542aede2cb860405160405180910390a250565b600460009054906101000a900473ffffffffffffffffffffffffffffffffffffffff1673ffffffffffffffffffffffffffffffffffffffff163373ffffffffffffffffffffffffffffffffffffffff16146104b1576040517f08c379a00000000000000000000000000000000000000000000000000000000081526004016104a890611e06565b60405180910390fd5b60006001600085815260200190815260200160002090506104e18260405180602001604052806000815250611330565b6105ce576104ed611389565b6040518060400160405280600981526020017f617373697374616e74000000000000000000000000000000000000000000000081525081600001819052508281602001819052508160010181908060018154018082558091505060019003906000526020600020906002020160009091909190915060008201518160000190816105779190612032565b50602082015181600101908161058d9190612032565b5050508160020160008154809291906105a590612133565b919050555060018260030160016101000a81548160ff02191690831515021790555050506107e7565b8060030160009054906101000a900460ff1660ff168160020154106106105760018160030160016101000a81548160ff021916908315150217905550506107e7565b61062d836020015160405180602001604052806000815250611330565b6106fc57610639611389565b836020015181602001819052506040518060400160405280600981526020017f617373697374616e74000000000000000000000000000000000000000000000081525081600001819052508160010181908060018154018082558091505060019003906000526020600020906002020160009091909190915060008201518160000190816106c79190612032565b5060208201518160010190816106dd9190612032565b5050508160020160008154809291906106f590612133565b9190505550505b610719836040015160405180602001604052806000815250611330565b6107c857600460009054906101000a900473ffffffffffffffffffffffffffffffffffffffff1673ffffffffffffffffffffffffffffffffffffffff16634b04236b8585606001516040518363ffffffff1660e01b815260040161077e9291906121c7565b6020604051808303816000875af115801561079d573d6000803e3d6000fd5b505050506040513d601f19601f820116820180604052508101906107c1919061221f565b50506107e7565b60018160030160016101000a81548160ff021916908315150217905550505b505050565b600460009054906101000a900473ffffffffffffffffffffffffffffffffffffffff1673ffffffffffffffffffffffffffffffffffffffff163373ffffffffffffffffffffffffffffffffffffffff161461087c576040517f08c379a000000000000000000000000000000000000000000000000000000000815260040161087390611e06565b60405180910390fd5b60006001600085815260200190815260200160002090508060030160019054906101000a900460ff16156108e5576040517f08c379a00000000000000000000000000000000000000000000000000000000081526004016108dc90612298565b60405180910390fd5b60008390506109038360405180602001604052806000815250611330565b61090b578290505b610913611389565b6040518060400160405280600481526020017f757365720000000000000000000000000000000000000000000000000000000081525081600001819052506000826040516020016109649190612366565b60405160208183030381529060405290508082602001819052508360010182908060018154018082558091505060019003906000526020600020906002020160009091909190915060008201518160000190816109c19190612032565b5060208201518160010190816109d79190612032565b5050508360020160008154809291906109ef90612133565b9190505550600460009054906101000a900473ffffffffffffffffffffffffffffffffffffffff1673ffffffffffffffffffffffffffffffffffffffff16633c38a5f58860056040518363ffffffff1660e01b8152600401610a52929190612663565b6020604051808303816000875af1158015610a71573d6000803e3d6000fd5b505050506040513d601f19601f82011682018060405250810190610a95919061221f565b5050505050505050565b60008054610aac90611e55565b80601f0160208091040260200160405190810160405280929190818152602001828054610ad890611e55565b8015610b255780601f10610afa57610100808354040283529160200191610b25565b820191906000526020600020905b815481529060010190602001808311610b0857829003601f168201915b505050505081565b600360009054906101000a900473ffffffffffffffffffffffffffffffffffffffff1673ffffffffffffffffffffffffffffffffffffffff163373ffffffffffffffffffffffffffffffffffffffff1614610bbd576040517f08c379a0000000000000000000000000000000000000000000000000000000008152600401610bb490611d2e565b60405180910390fd5b8060009081610bcc9190612032565b5050565b600460009054906101000a900473ffffffffffffffffffffffffffffffffffffffff1681565b60016020528060005260406000206000915090508060000160009054906101000a900473ffffffffffffffffffffffffffffffffffffffff16908060020154908060030160009054906101000a900460ff16908060030160019054906101000a900460ff16905084565b6000806001600060025481526020019081526020016000209050338160000160006101000a81548173ffffffffffffffffffffffffffffffffffffffff021916908373ffffffffffffffffffffffffffffffffffffffff16021790555060008160030160016101000a81548160ff02191690831515021790555060008160020181905550828160030160006101000a81548160ff021916908360ff160217905550610d09611389565b60008054610d1690611e55565b80601f0160208091040260200160405190810160405280929190818152602001828054610d4290611e55565b8015610d8f5780601f10610d6457610100808354040283529160200191610d8f565b820191906000526020600020905b815481529060010190602001808311610d7257829003601f168201915b505050505081602001819052506040518060400160405280600681526020017f73797374656d00000000000000000000000000000000000000000000000000008152508160000181905250816001018190806001815401808255809150506001900390600052602060002090600202016000909190919091506000820151816000019081610e1d9190612032565b506020820151816001019081610e339190612032565b505050610e3e611389565b8581602001819052506040518060400160405280600481526020017f75736572000000000000000000000000000000000000000000000000000000008152508160000181905250826001018190806001815401808255809150506001900390600052602060002090600202016000909190919091506000820151816000019081610ec89190612032565b506020820151816001019081610ede9190612032565b505050600060025490506001600254610ef79190612693565b600281905550600460009054906101000a900473ffffffffffffffffffffffffffffffffffffffff1673ffffffffffffffffffffffffffffffffffffffff16633c38a5f58260056040518363ffffffff1660e01b8152600401610f5b929190612663565b6020604051808303816000875af1158015610f7a573d6000803e3d6000fd5b505050506040513d601f19601f82011682018060405250810190610f9e919061221f565b50808460000160009054906101000a900473ffffffffffffffffffffffffffffffffffffffff1673ffffffffffffffffffffffffffffffffffffffff167f9697c88a6be3b3ed5062f2dcbd719a10914832320686f14e24f7756210a6685e60405160405180910390a38094505050505092915050565b60606000600160008481526020019081526020016000206001018054905067ffffffffffffffff81111561104b5761104a6114f1565b5b60405190808252806020026020018201604052801561107e57816020015b60608152602001906001900390816110695790505b50905060005b6001600085815260200190815260200160002060010180549050811015611198576001600085815260200190815260200160002060010181815481106110cd576110cc6126c7565b5b906000526020600020906002020160010180546110e990611e55565b80601f016020809104026020016040519081016040528092919081815260200182805461111590611e55565b80156111625780601f1061113757610100808354040283529160200191611162565b820191906000526020600020905b81548152906001019060200180831161114557829003601f168201915b505050505082828151811061117a576111796126c7565b5b6020026020010181905250808061119090612133565b915050611084565b5080915050919050565b60606000600160008481526020019081526020016000206001018054905067ffffffffffffffff8111156111d9576111d86114f1565b5b60405190808252806020026020018201604052801561120c57816020015b60608152602001906001900390816111f75790505b50905060005b60016000858152602001908152602001600020600101805490508110156113265760016000858152602001908152602001600020600101818154811061125b5761125a6126c7565b5b9060005260206000209060020201600001805461127790611e55565b80601f01602080910402602001604051908101604052809291908181526020018280546112a390611e55565b80156112f05780601f106112c5576101008083540402835291602001916112f0565b820191906000526020600020905b8154815290600101906020018083116112d357829003601f168201915b5050505050828281518110611308576113076126c7565b5b6020026020010181905250808061131e90612133565b915050611212565b5080915050919050565b60008160405160200161134391906126f6565b604051602081830303815290604052805190602001208360405160200161136a91906126f6565b6040516020818303038152906040528051906020012014905092915050565b604051806040016040528060608152602001606081525090565b6000604051905090565b600080fd5b600080fd5b6000819050919050565b6113ca816113b7565b81146113d557600080fd5b50565b6000813590506113e7816113c1565b92915050565b600060208284031215611403576114026113ad565b5b6000611411848285016113d8565b91505092915050565b60008115159050919050565b61142f8161141a565b82525050565b600060208201905061144a6000830184611426565b92915050565b600073ffffffffffffffffffffffffffffffffffffffff82169050919050565b600061147b82611450565b9050919050565b61148b81611470565b811461149657600080fd5b50565b6000813590506114a881611482565b92915050565b6000602082840312156114c4576114c36113ad565b5b60006114d284828501611499565b91505092915050565b600080fd5b6000601f19601f8301169050919050565b7f4e487b7100000000000000000000000000000000000000000000000000000000600052604160045260246000fd5b611529826114e0565b810181811067ffffffffffffffff82111715611548576115476114f1565b5b80604052505050565b600061155b6113a3565b90506115678282611520565b919050565b600080fd5b600080fd5b600080fd5b600067ffffffffffffffff821115611596576115956114f1565b5b61159f826114e0565b9050602081019050919050565b82818337600083830152505050565b60006115ce6115c98461157b565b611551565b9050828152602081018484840111156115ea576115e9611576565b5b6115f58482856115ac565b509392505050565b600082601f83011261161257611611611571565b5b81356116228482602086016115bb565b91505092915050565b600067ffffffffffffffff82169050919050565b6116488161162b565b811461165357600080fd5b50565b6000813590506116658161163f565b92915050565b600063ffffffff82169050919050565b6116848161166b565b811461168f57600080fd5b50565b6000813590506116a18161167b565b92915050565b600061016082840312156116be576116bd6114db565b5b6116c9610160611551565b9050600082013567ffffffffffffffff8111156116e9576116e861156c565b5b6116f5848285016115fd565b600083015250602082013567ffffffffffffffff8111156117195761171861156c565b5b611725848285016115fd565b602083015250604082013567ffffffffffffffff8111156117495761174861156c565b5b611755848285016115fd565b604083015250606082013567ffffffffffffffff8111156117795761177861156c565b5b611785848285016115fd565b606083015250608061179984828501611656565b60808301525060a082013567ffffffffffffffff8111156117bd576117bc61156c565b5b6117c9848285016115fd565b60a08301525060c082013567ffffffffffffffff8111156117ed576117ec61156c565b5b6117f9848285016115fd565b60c08301525060e082013567ffffffffffffffff81111561181d5761181c61156c565b5b611829848285016115fd565b60e08301525061010061183e84828501611692565b6101008301525061012061185484828501611692565b6101208301525061014061186a84828501611692565b6101408301525092915050565b6000806000606084860312156118905761188f6113ad565b5b600061189e868287016113d8565b935050602084013567ffffffffffffffff8111156118bf576118be6113b2565b5b6118cb868287016116a7565b925050604084013567ffffffffffffffff8111156118ec576118eb6113b2565b5b6118f8868287016115fd565b9150509250925092565b60008060006060848603121561191b5761191a6113ad565b5b6000611929868287016113d8565b935050602084013567ffffffffffffffff81111561194a576119496113b2565b5b611956868287016115fd565b925050604084013567ffffffffffffffff811115611977576119766113b2565b5b611983868287016115fd565b9150509250925092565b600081519050919050565b600082825260208201905092915050565b60005b838110156119c75780820151818401526020810190506119ac565b60008484015250505050565b60006119de8261198d565b6119e88185611998565b93506119f88185602086016119a9565b611a01816114e0565b840191505092915050565b60006020820190508181036000830152611a2681846119d3565b905092915050565b600060208284031215611a4457611a436113ad565b5b600082013567ffffffffffffffff811115611a6257611a616113b2565b5b611a6e848285016115fd565b91505092915050565b611a8081611470565b82525050565b6000602082019050611a9b6000830184611a77565b92915050565b611aaa816113b7565b82525050565b600060ff82169050919050565b611ac681611ab0565b82525050565b6000608082019050611ae16000830187611a77565b611aee6020830186611aa1565b611afb6040830185611abd565b611b086060830184611426565b95945050505050565b611b1a81611ab0565b8114611b2557600080fd5b50565b600081359050611b3781611b11565b92915050565b60008060408385031215611b5457611b536113ad565b5b600083013567ffffffffffffffff811115611b7257611b716113b2565b5b611b7e858286016115fd565b9250506020611b8f85828601611b28565b9150509250929050565b6000602082019050611bae6000830184611aa1565b92915050565b600081519050919050565b600082825260208201905092915050565b6000819050602082019050919050565b600082825260208201905092915050565b6000611bfc8261198d565b611c068185611be0565b9350611c168185602086016119a9565b611c1f816114e0565b840191505092915050565b6000611c368383611bf1565b905092915050565b6000602082019050919050565b6000611c5682611bb4565b611c608185611bbf565b935083602082028501611c7285611bd0565b8060005b85811015611cae5784840389528151611c8f8582611c2a565b9450611c9a83611c3e565b925060208a01995050600181019050611c76565b50829750879550505050505092915050565b60006020820190508181036000830152611cda8184611c4b565b905092915050565b7f43616c6c6572206973206e6f74206f776e657200000000000000000000000000600082015250565b6000611d18601383611998565b9150611d2382611ce2565b602082019050919050565b60006020820190508181036000830152611d4781611d0b565b9050919050565b7f43616c6c6572206973206e6f7420746865206f776e6572000000000000000000600082015250565b6000611d84601783611998565b9150611d8f82611d4e565b602082019050919050565b60006020820190508181036000830152611db381611d77565b9050919050565b7f43616c6c6572206973206e6f74206f7261636c65000000000000000000000000600082015250565b6000611df0601483611998565b9150611dfb82611dba565b602082019050919050565b60006020820190508181036000830152611e1f81611de3565b9050919050565b7f4e487b7100000000000000000000000000000000000000000000000000000000600052602260045260246000fd5b60006002820490506001821680611e6d57607f821691505b602082108103611e8057611e7f611e26565b5b50919050565b60008190508160005260206000209050919050565b60006020601f8301049050919050565b600082821b905092915050565b600060088302611ee87fffffffffffffffffffffffffffffffffffffffffffffffffffffffffffffffff82611eab565b611ef28683611eab565b95508019841693508086168417925050509392505050565b6000819050919050565b6000611f2f611f2a611f25846113b7565b611f0a565b6113b7565b9050919050565b6000819050919050565b611f4983611f14565b611f5d611f5582611f36565b848454611eb8565b825550505050565b600090565b611f72611f65565b611f7d818484611f40565b505050565b5b81811015611fa157611f96600082611f6a565b600181019050611f83565b5050565b601f821115611fe657611fb781611e86565b611fc084611e9b565b81016020851015611fcf578190505b611fe3611fdb85611e9b565b830182611f82565b50505b505050565b600082821c905092915050565b600061200960001984600802611feb565b1980831691505092915050565b60006120228383611ff8565b9150826002028217905092915050565b61203b8261198d565b67ffffffffffffffff811115612054576120536114f1565b5b61205e8254611e55565b612069828285611fa5565b600060209050601f83116001811461209c576000841561208a578287015190505b6120948582612016565b8655506120fc565b601f1984166120aa86611e86565b60005b828110156120d2578489015182556001820191506020850194506020810190506120ad565b868310156120ef57848901516120eb601f891682611ff8565b8355505b6001600288020188555050505b505050505050565b7f4e487b7100000000000000000000000000000000000000000000000000000000600052601160045260246000fd5b600061213e826113b7565b91507fffffffffffffffffffffffffffffffffffffffffffffffffffffffffffffffff82036121705761216f612104565b5b600182019050919050565b7f696d6167655f67656e65726174696f6e00000000000000000000000000000000600082015250565b60006121b1601083611998565b91506121bc8261217b565b602082019050919050565b60006060820190506121dc6000830185611aa1565b81810360208301526121ed816121a4565b9050818103604083015261220181846119d3565b90509392505050565b600081519050612219816113c1565b92915050565b600060208284031215612235576122346113ad565b5b60006122438482850161220a565b91505092915050565b7f52756e2069732066696e69736865640000000000000000000000000000000000600082015250565b6000612282600f83611998565b915061228d8261224c565b602082019050919050565b600060208201905081810360008301526122b181612275565b9050919050565b600081905092915050565b60006122ce8261198d565b6122d881856122b8565b93506122e88185602086016119a9565b80840191505092915050565b7f3b696d6167652067656e65726174696f6e2066696e69736865642c206e6f772060008201527f636f6e74696e756520746f207772697465207468652073746f72792e00000000602082015250565b6000612350603c836122b8565b915061235b826122f4565b603c82019050919050565b600061237282846122c3565b915061237d82612343565b915081905092915050565b6000815461239581611e55565b61239f8186611be0565b945060018216600081146123ba57600181146123d057612403565b60ff198316865281151560200286019350612403565b6123d985611e86565b60005b838110156123fb578154818901526001820191506020810190506123dc565b808801955050505b50505092915050565b60008160001c9050919050565b60008160000b9050919050565b60006124396124348361240c565b612419565b9050919050565b60008160000b9050919050565b61245681612440565b82525050565b600063ffffffff82169050919050565b600061247f61247a8361240c565b61245c565b9050919050565b61248f8161166b565b82525050565b60008160201c9050919050565b60006124b56124b083612495565b612419565b9050919050565b6000819050919050565b60006124d96124d48361240c565b6124bc565b9050919050565b6124e9816113b7565b82525050565b60006101a083016000808401858303600087015261250d8382612388565b9250506001840154905061252081612426565b61252d602087018261244d565b506002840185830360408701526125448382612388565b925050600384015490506125578161246c565b6125646060870182612486565b5061256e816124a2565b61257b608087018261244d565b506004840185830360a08701526125928382612388565b925050600584015490506125a5816124c6565b6125b260c08701826124e0565b506006840185830360e08701526125c98382612388565b925050600784015490506125dc816124c6565b6125ea6101008701826124e0565b50600884015490506125fb816124c6565b6126096101208701826124e0565b50600984018583036101408701526126218382612388565b925050600a840185830361016087015261263b8382612388565b925050600b84018583036101808701526126558382612388565b925050819250505092915050565b60006040820190506126786000830185611aa1565b818103602083015261268a81846124ef565b90509392505050565b600061269e826113b7565b91506126a9836113b7565b92508282019050808211156126c1576126c0612104565b5b92915050565b7f4e487b7100000000000000000000000000000000000000000000000000000000600052603260045260246000fd5b600061270282846122c3565b91508190509291505056fea264697066735822122017140f7d015d11b3ccb9e291f1abdaf857bbd753ab96c86718f0d82a3b81e18164736f6c634300081100335b7b2274797065223a2266756e6374696f6e222c2266756e6374696f6e223a7b226e616d65223a227765625f736561726368222c226465736372697074696f6e223a225365617263682074686520696e7465726e6574222c22706172616d6574657273223a7b2274797065223a226f626a656374222c2270726f70657274696573223a7b227175657279223a7b2274797065223a22737472696e67222c226465736372697074696f6e223a22536561726368207175657279227d7d2c227265717569726564223a5b227175657279225d7d7d7d2c7b2274797065223a2266756e6374696f6e222c2266756e6374696f6e223a7b226e616d65223a22696d6167655f67656e65726174696f6e222c226465736372697074696f6e223a2247656e65726174657320616e20696d616765207573696e672044616c6c652d32222c22706172616d6574657273223a7b2274797065223a226f626a656374222c2270726f70657274696573223a7b2270726f6d7074223a7b2274797065223a22737472696e67222c226465736372697074696f6e223a2244616c6c652d322070726f6d707420746f2067656e657261746520616e20696d616765227d7d2c227265717569726564223a5b2270726f6d7074225d7d7d7d5d",
  "linkReferences": {},
  "deployedLinkReferences": {}
}